{
  "_format": "hh-sol-artifact-1",
  "contractName": "BasicDutchAuction",
  "sourceName": "contracts/BasicDutchAuction.sol",
  "abi": [
    {
      "inputs": [
        {
          "internalType": "uint256",
          "name": "_reservePrice",
          "type": "uint256"
        },
        {
          "internalType": "uint256",
          "name": "_numBlocksAuctionOpen",
          "type": "uint256"
        },
        {
          "internalType": "uint256",
          "name": "_offerPriceDecrement",
          "type": "uint256"
        }
      ],
      "stateMutability": "nonpayable",
      "type": "constructor"
    },
    {
      "inputs": [],
      "name": "auctionEnded",
      "outputs": [
        {
          "internalType": "bool",
          "name": "",
          "type": "bool"
        }
      ],
      "stateMutability": "view",
      "type": "function"
    },
    {
      "inputs": [],
      "name": "endingBlock",
      "outputs": [
        {
          "internalType": "uint256",
          "name": "",
          "type": "uint256"
        }
      ],
      "stateMutability": "view",
      "type": "function"
    },
    {
      "inputs": [],
      "name": "highestBid",
      "outputs": [
        {
          "internalType": "uint256",
          "name": "",
          "type": "uint256"
        }
      ],
      "stateMutability": "view",
      "type": "function"
    },
    {
      "inputs": [],
      "name": "highestBidder",
      "outputs": [
        {
          "internalType": "address",
          "name": "",
          "type": "address"
        }
      ],
      "stateMutability": "view",
      "type": "function"
    },
    {
      "inputs": [],
      "name": "initialPrice",
      "outputs": [
        {
          "internalType": "uint256",
          "name": "",
          "type": "uint256"
        }
      ],
      "stateMutability": "view",
      "type": "function"
    },
    {
      "inputs": [],
      "name": "numBlocksAuctionOpen",
      "outputs": [
        {
          "internalType": "uint256",
          "name": "",
          "type": "uint256"
        }
      ],
      "stateMutability": "view",
      "type": "function"
    },
    {
      "inputs": [],
      "name": "offerPriceDecrement",
      "outputs": [
        {
          "internalType": "uint256",
          "name": "",
          "type": "uint256"
        }
      ],
      "stateMutability": "view",
      "type": "function"
    },
    {
      "inputs": [],
      "name": "placeBid",
      "outputs": [],
      "stateMutability": "payable",
      "type": "function"
    },
    {
      "inputs": [],
      "name": "reservePrice",
      "outputs": [
        {
          "internalType": "uint256",
          "name": "",
          "type": "uint256"
        }
      ],
      "stateMutability": "view",
      "type": "function"
    },
    {
      "inputs": [],
      "name": "seller",
      "outputs": [
        {
          "internalType": "address payable",
          "name": "",
          "type": "address"
        }
      ],
      "stateMutability": "view",
      "type": "function"
    },
    {
      "inputs": [],
      "name": "startingBlock",
      "outputs": [
        {
          "internalType": "uint256",
          "name": "",
          "type": "uint256"
        }
      ],
      "stateMutability": "view",
      "type": "function"
    }
  ],
  "bytecode": "0x60806040526000600760006101000a81548160ff0219169083151502179055506000600760016101000a81548173ffffffffffffffffffffffffffffffffffffffff021916908373ffffffffffffffffffffffffffffffffffffffff16021790555060006008553480156200007357600080fd5b5060405162000a0038038062000a0083398181016040528101906200009991906200017d565b826001819055508160028190555080600381905550336000806101000a81548173ffffffffffffffffffffffffffffffffffffffff021916908373ffffffffffffffffffffffffffffffffffffffff16021790555060035460025462000100919062000208565b6001546200010f919062000253565b600481905550436005819055506002546005546200012e919062000253565b6006819055505050506200028e565b600080fd5b6000819050919050565b620001578162000142565b81146200016357600080fd5b50565b60008151905062000177816200014c565b92915050565b6000806000606084860312156200019957620001986200013d565b5b6000620001a98682870162000166565b9350506020620001bc8682870162000166565b9250506040620001cf8682870162000166565b9150509250925092565b7f4e487b7100000000000000000000000000000000000000000000000000000000600052601160045260246000fd5b6000620002158262000142565b9150620002228362000142565b9250828202620002328162000142565b915082820484148315176200024c576200024b620001d9565b5b5092915050565b6000620002608262000142565b91506200026d8362000142565b9250828201905080821115620002885762000287620001d9565b5b92915050565b610762806200029e6000396000f3fe60806040526004361061009c5760003560e01c806391f901571161006457806391f9015714610178578063d3642a88146101a3578063d57bde79146101ce578063d91c98d3146101f9578063db2e1eed14610224578063ecfc7ecc1461024f5761009c565b806308551a53146100a15780631d0806ae146100cc5780633103ea62146100f75780637b1f337d14610122578063864333741461014d575b600080fd5b3480156100ad57600080fd5b506100b6610259565b6040516100c391906104b7565b60405180910390f35b3480156100d857600080fd5b506100e161027d565b6040516100ee91906104eb565b60405180910390f35b34801561010357600080fd5b5061010c610283565b60405161011991906104eb565b60405180910390f35b34801561012e57600080fd5b50610137610289565b60405161014491906104eb565b60405180910390f35b34801561015957600080fd5b5061016261028f565b60405161016f9190610521565b60405180910390f35b34801561018457600080fd5b5061018d6102a2565b60405161019a919061055d565b60405180910390f35b3480156101af57600080fd5b506101b86102c8565b6040516101c591906104eb565b60405180910390f35b3480156101da57600080fd5b506101e36102ce565b6040516101f091906104eb565b60405180910390f35b34801561020557600080fd5b5061020e6102d4565b60405161021b91906104eb565b60405180910390f35b34801561023057600080fd5b506102396102da565b60405161024691906104eb565b60405180910390f35b6102576102e0565b005b60008054906101000a900473ffffffffffffffffffffffffffffffffffffffff1681565b60045481565b60025481565b60065481565b600760009054906101000a900460ff1681565b600760019054906101000a900473ffffffffffffffffffffffffffffffffffffffff1681565b60035481565b60085481565b60055481565b60015481565b60055443101580156102f457506006544311155b610333576040517f08c379a000000000000000000000000000000000000000000000000000000000815260040161032a906105d5565b60405180910390fd5b6000600354600554436103469190610624565b6103509190610658565b60045461035d9190610624565b9050803411156104385733600760016101000a81548173ffffffffffffffffffffffffffffffffffffffff021916908373ffffffffffffffffffffffffffffffffffffffff160217905550346008819055506001600760006101000a81548160ff02191690831515021790555060008054906101000a900473ffffffffffffffffffffffffffffffffffffffff1673ffffffffffffffffffffffffffffffffffffffff166108fc6008549081150290604051600060405180830381858888f19350505050158015610432573d6000803e3d6000fd5b50610473565b6040517f08c379a000000000000000000000000000000000000000000000000000000000815260040161046a9061070c565b60405180910390fd5b50565b600073ffffffffffffffffffffffffffffffffffffffff82169050919050565b60006104a182610476565b9050919050565b6104b181610496565b82525050565b60006020820190506104cc60008301846104a8565b92915050565b6000819050919050565b6104e5816104d2565b82525050565b600060208201905061050060008301846104dc565b92915050565b60008115159050919050565b61051b81610506565b82525050565b60006020820190506105366000830184610512565b92915050565b600061054782610476565b9050919050565b6105578161053c565b82525050565b6000602082019050610572600083018461054e565b92915050565b600082825260208201905092915050565b7f41756374696f6e206973206e6f742063757272656e746c79206f70656e2e0000600082015250565b60006105bf601e83610578565b91506105ca82610589565b602082019050919050565b600060208201905081810360008301526105ee816105b2565b9050919050565b7f4e487b7100000000000000000000000000000000000000000000000000000000600052601160045260246000fd5b600061062f826104d2565b915061063a836104d2565b9250828203905081811115610652576106516105f5565b5b92915050565b6000610663826104d2565b915061066e836104d2565b925082820261067c816104d2565b91508282048414831517610693576106926105f5565b5b5092915050565b7f42696420616d6f756e74206973206e6f7420686967686572207468616e20637560008201527f7272656e74207072696365000000000000000000000000000000000000000000602082015250565b60006106f6602b83610578565b91506107018261069a565b604082019050919050565b60006020820190508181036000830152610725816106e9565b905091905056fea264697066735822122004dc8e7b11b6d68dba8741920fbab1195f37427e35f6a1957fab0a382bc686cd64736f6c63430008110033",
  "linkReferences": {},
  "deployedLinkReferences": {}
}